:020000040800F2
:10000000F00C002091020008773F00082D36000810
:10001000753F000811150008D54A000800000000CF
:100020000000000000000000000000003143000854
:100030001315000800000000793F00083343000852
:10004000AB020008AB020008AB020008AB020008DC
:10005000AB020008AB020008AB020008AB020008CC
:10006000AB020008AB020008AB020008AB020008BC
:10007000AB020008AB020008AB020008AB020008AC
:10008000AB02000800000000AB020008AB02000851
:10009000AB020008AB020008AB020008AB0200088C
:1000A000AB020008B1430008AB020008AB02000835
:1000B000BD430008C9430008AB020008AB020008BA
:1000C000AB020008AB020008AB020008AB0200085C
:1000D000AB020008AB020008AB020008AB0200084C
:1000E000AB020008AB020008AB020008AB0200083C
:1000F000AB020008AB020008AB02000800000000E1
:1001000000000000AB02000800000000AB02000885
:10011000AB02000800000000AB020008AB020008C0
:10012000AB020008AB020008AB020008AB020008FB
:10013000AB0200080000000000000000AB02000855
:10014000AB020008AB020008000000000000000045
:10015000000000000000000000000000000000009F
:10016000000000000000000000000000AB020008DA
:10017000AB020008000000000000000000000000CA
:1001800000000000AB0200080000000000000000BA
:10019000000000000000000000000000000000005F
:1001A0000000000000000000AB020008AB020008E5
:1001B000AB020008AB020008AB0200080000000020
:1001C00000000000AB02000800000000000000007A
:1001D000AB020008AB02000800F002F800F049F89A
:1001E0000AA090E8000C82448344AAF10107DA4592
:1001F00001D100F03EF8AFF2090EBAE80F0013F09B
:10020000010F18BFFB1A43F001031847F463000005
:1002100014640000103A24BF78C878C1FAD8520795
:1002200024BF30C830C144BF04680C607047000070
:100230000023002400250026103A28BF78C1FBD8EF
:10024000520728BF30C148BF0B607047662905F0D0
:100250008280002070471FB505F073F800F0C4FBE2
:1002600004000020002104F0A3FEE0601FBD10B5D3
:1002700010BD00F0B9FC1146FFF7EDFF04F008FED9
:1002800000F0D7FC03B4FFF7F2FF03BC00F01AFD47
:100290000948804709480047FEE7FEE7FEE7FEE71A
:1002A000FEE7FEE7FEE7FEE7FEE7FEE70448054956
:1002B000054A064B70470000A1430008D901000819
:1002C000F0060020F00C0020F0080020F0080020CC
:1002D00053EA020C00F069802DE9F04B4FF0000664
:1002E000002B1FBFB3FA83F503FA05F424FA05F6D1
:1002F0005E4012BF1643B2FA82F502FA05F4C5F168
:1003000020051EBF22FA05FC44EA0C04203556EAFB
:10031000044C4FEA144418BF641C4FF000084FF01F
:100320000009904271EB030C39D3002919BFB1FACF
:1003300081F701FA07F6B0FA80F700FA07F6C7F17D
:1003400020071EBF20FA07FC46EA0C062037B6FB42
:10035000F4FCA7EB0507103F07F01F0BCBF12006BD
:100360000CFA0BFB2CFA06F644BFB3460026202FEE
:10037000A4BF5E464FF0000B5BEA060C08BF4FF0CF
:10038000010B19EB0B09ABFB027C48EB0608C01B09
:1003900006FB02CC0BFB03CC71EB0C01C1E70B4657
:1003A000024641464846BDE8F08B13B54FF00000C9
:1003B0004FF00001AFF30080BDE81C407047000023
:1003C0000FB41CB5074B06AA7B44694600900598FC
:1003D00000F0E9FA0020694600F0F8FA1CBC5DF86C
:1003E00014FB0000010600000FB41CB50C0007AAA6
:1003F000009001D02044401E074B7B446946019089
:10040000069800F0D0FA002C03D06946002000F0D6
:10041000DDFA1CBC5DF814FBD90500002DE9F0479E
:100420004FF0000A89460446C0F820A02046E16843
:100430008847002876D0252806D0D4E901219047A6
:10044000206A401C2062F1E7E168204600258847C9
:10045000C4F81CA006460027C4F818A02A2E09D00C
:10046000304604F060FB38B304EB8708303EC8F830
:10047000186019E059F8041B204604EB87029161CB
:10048000E1688847012F064618D1E069002820DA84
:1004900025F020051DE0D8F8180000EB800006EBE1
:1004A00040003038C8F818002046E1688847064602
:1004B00004F039FB0028EED1012F0AD02E2E08D1EE
:1004C0002046E16888477F1C0646022F45F020053C
:1004D000C4DBA069002803DA404245F00105A061B1
:1004E000E80701D025F01005B6B1A6F141001928A2
:1004F00002D8203645F400654A463146204625603C
:100500004D46FFF7A3FE58B1012806D0ED1D25F09A
:10051000070000F1080989E704E005F1040985E70F
:1005200030468AE7206ABDE8F0874FF0000200B548
:10053000134694469646203922BFA0E80C50A0E806
:100540000C50B1F12001BFF4F7AF090728BFA0E8B4
:100550000C5048BF0CC05DF804EB890028BF40F880
:10056000042B08BF704748BF20F8022B11F0804FC2
:1005700018BF00F8012B70477047704770477047ED
:100580002DE9FF4F0C461E464FF0FF378BB0D2E9E6
:100590000001DDF860800A908A46C1F30A5505B96A
:1005A0003D46002108464FF00000BAF1000F00F46C
:1005B000400005DA00EB80004FF4400101EA5000F2
:1005C0004FEA9059B9F1010F00DDB9460A9850EA97
:1005D0004A000ED044F61050A5F2FF3545432F14C3
:1005E000B8F1000F1ED07542291E1EDDC9F10002B0
:1005F0001CE0B8F1010F4FF0000001D0302103E002
:10060000F24305E02154401CB042FBDB304600229F
:10061000002121540B99C1F80880C1E900200FB0D6
:10062000BDE8F08FBD1B6D1CDEE74A4600DA69426B
:1006300006A800F063FA06AB93E8070003AB83E873
:10064000070050460A9900F044FB8DE80700A0F52A
:1006500000501F3800900398002D0ADD42F21F0160
:100660004A460844002303A90390684600F0ADFD04
:1006700009E0A0F500504A461F38002303A9039063
:10068000684600F0B7FD8DE807000004000C03D0B9
:100690004FF0FF30410800E01046B8F1000F03D0E2
:1006A0000022009215461EE0751E05D400F0A0F948
:1006B000303262556D1EF9D5B3460122084302D08F
:1006C00000227F1C04E02078302801D100227F1E08
:1006D000002A099784D01DE0112D07DA00F088F96F
:1006E000303262556D1C50EA0102F5D1084302D048
:1006F0000098C8B10EE00021681E05E0235C625C32
:1007000063542254401E491C8142F7DBAB46A81BB0
:10071000401E0990002004F80B000B98099AC0F8BD
:100720000880C0E9002B7AE711264FF0000857E750
:100730002DE9F04F88460446D21D22F0070191B002
:10074000D1E90001CDE90A0104F0C5F902460B9890
:10075000C00F01D02D2007E02068810701D52B2094
:1007600002E0202101EAC000032A099001D0072AF3
:1007700005DB03464146204600F080F90BE1207876
:10078000800601D5E06900E00620B8F1650F8146DA
:1007900006D0B8F1660F18D0B8F1670F70D131E00C
:1007A0000020B9F1110F009001DB112301E009F1E4
:1007B00001030AAA01A90CA8FFF7E2FEDDE90C700B
:1007C000002609F10105834647E001204B460090D1
:1007D0004FF000470AAA01A90CA8FFF7D1FEDDE9F6
:1007E0000DB00C995D46002610B909F101000D18F5
:1007F000B9EB050003D4C0F1FF3609F10105A5EB03
:1008000009002BE0B9F1010F01DA4FF001090020D6
:10081000B9F1110F0090484601DD112300E00346B5
:100820000AAA01A90CA8FFF7ABFEDDE90C704D4642
:1008300000268346207800070AD4AB4500DA5D46DF
:1008400001A8012D04DD411911F8011C302907D040
:100850004F4502DA17F1040F04DA012082460FE057
:100860006D1EEEE7002F02DCED1B3E4403E0781C1A
:10087000A84200DD7D1CB81B00F1010A4FF00047C3
:100880002078000703D4AA4501DB4FF0FF3A00218E
:10089000B7F1004F0DF143088DF8431024D002202A
:1008A0002B23002F01DA7F422D230A21021EA0F103
:1008B000010000DC5FB197FBF1FC97FBF1F201FB5B
:1008C0001C7C17460CF1300C08F801CDEEE7A8F1BE
:1008D000010003702188090501D5452100E065214B
:1008E000A0F1010800F8011C09980FA9A1EB080765
:1008F000FF1D00B10120411901EBEA70A1693844E4
:10090000081A401EA0612078C00602D42046AFF32A
:100910000080099828B1D4E901219047206A401C41
:1009200020622078C00622D52046AFF300801EE06A
:10093000002E04DBB34502DD01A8805D00E030201D
:10094000D4E901219047206A401C2062761CAAF15C
:1009500001005FEA000A0AD100F046F8C0680168A9
:10096000405CD4E901219047206A401C2062281E87
:10097000A5F10105DCDC07E0D4E9012118F8010B41
:100980009047206A401C2062381EA7F10107F3DC63
:100990002046AFF30080032011B041E601694A1CF4
:1009A00002610878704700B58FB0CDE901310021B0
:1009B000059105497944CDE9031011466846FFF7D2
:1009C0002DFD0FB000BD0000E5FFFFFF0A6802F833
:1009D000010B0A607047D1E900239A4202D2531CEE
:1009E0000B6010707047000000487047AC06002094
:1009F00030B5B0F10A024FEA900E71F100034EEAF1
:100A0000817EB0EB0E0061EB91014FEA101E4EEAC1
:100A1000017E10EB0E0041EB11114FEA102E4EEA51
:100A2000016E10EB0E0041EB11214FEA104E4EEA21
:100A3000014E10EB0E0041EB1141401841F1000155
:100A40004FEAD00040EA41704FEAD10110EB800537
:100A50004FEA810444EA907444EB01046D1944EBBD
:100A60000404521BA3414FF0000348BF0A3200D5D3
:100A700030BD401C41F1000130BD00002DE9F041C6
:100A80001F46044603260168072A01F4006004DBC0
:100A900008B116A505E016A503E008B115A500E00C
:100AA00015A521F010002060A069C01EA0610FB143
:100AB000401EA0612046AFF300804FB1D4E9012170
:100AC00038469047206A401C2062C01C206206E025
:100AD000206AFAE7D4E9012115F8010B9047761E48
:100AE000F8D22046AFF30080BDE8F0814E414E00C1
:100AF0006E616E00494E4600696E66002DE9F04752
:100B0000814616468AB0354878440DC88DE80D00F8
:100B100032487844801C03AC0DC884E80D0041F6CF
:100B20009B300844372190FBF1F290FBF1F5A5F1E1
:100B3000800501FB12041B3C02D56442012000E049
:100B40000020DFF898A080460027FA44AAF1BE0AE8
:100B50000EE0E0070AD03246684607EB4701012362
:100B60000AEB810100F046FB8DE8070064107F1C52
:100B7000002CEED1194F7F44AE3F19E0E80715D0A5
:100B800007EB04100DF1180A90E80E008AE80E0039
:100B9000C068F04201D1981908903246012306A995
:100BA00003A800F027FB03AB83E807006D10641C6B
:100BB000002DE3D14FF0010332466946B8F1000F32
:100BC00003A802D000F001FB01E000F013FBC9E92B
:100BD0000001C9F808200AB0BDE8F087DC5A00001F
:100BE000004870478C0600207546FFF7F9FFAE46B7
:100BF00005006946534620F00700854618B020B529
:100C0000FFF754FBBDE820404FF000064FF000070F
:100C10004FF000084FF0000B21F00701AC46ACE8A4
:100C2000C009ACE8C009ACE8C009ACE8C0098D4611
:100C3000704710B50446AFF300802046BDE8104071
:100C4000FFF720BB4FF0013C50F8042B51F8043B58
:100C50009A4221D1A2EB0C03934313EACC1317D190
:100C600050F8042B51F8043B9A4215D1A2EB0C0327
:100C7000934313EACC130BD150F8042B51F8043BE7
:100C80009A4209D1A2EB0C03934313EACC13DBD0B5
:100C90004FF00000704700BFD01A01BAB1FA81F1DD
:100CA00001F0180122FA01F0CB40C1F12001DBB2C2
:100CB000C0B2C01A2CFA01F3D11A914311EAC31140
:100CC000E6D1704701491820ABBEFEE726000200BE
:100CD00070475FEA400C08BF91F0000F4FEA8C2389
:100CE0004FEAC12243EA51514FEA1C5018BF00F5A8
:100CF000F0404FEA300018BF41F000415FEA6C5C01
:100D000000F02980BCF1FF3F08BF40F080407047F1
:100D1000130C06BF12044FF0100C4FF0000C130E12
:100D200004BF12020CF1080C130F04BF12010CF1E6
:100D3000040C930F04BF92000CF1020CD30F04BFFC
:100D400052000CF1010C11464FF00002A0F11F00FF
:100D5000A0EB0C00704711F0004F08BF704731F056
:100D600000413FF4D5AF0B0C06BF09044FF0100C47
:100D70004FF0000C0B0E04BF09020CF1080C0B0F16
:100D800004BF09010CF1040C8B0F04BF89000CF1A6
:100D9000020CCB0F04BF49000CF1010CCCF1200375
:100DA000A0EB0C0022FA03F302FA0CF241EA030171
:100DB00000F10100704720F07F4C80EA030023F02F
:100DC0007F47ACEB070303F57C5300F0004003F1D1
:100DD000FF032DE980494FEA154B09B44FEA14434C
:100DE00025EA0B4E24EA03480FF2042606EB1327EC
:100DF00049083E785FEA320203FB0667C7F5000741
:100E000007FB06F64FEA54374FEAD64606F10206CC
:100E100007FB066CCCF1005C4FEA1C472CEA074C40
:100E200007FB06F40CFB06F504EB15464FEA961695
:100E300034BF00204FF000404FEAD13706FB07FCDB
:100E40004FEA1C4C0CFB0BF7D21B03FB0CF761EBBE
:100E500007010CFB0EF7B0EB074072EB17420CFBDF
:100E600008F734BFA2EB0742B2EB074261EB174130
:100E70004FEA0C444FEA910706FB07FC4FEA1C4C73
:100E80000CFB0BF7B0EBC74072EB573203FB0CF7D0
:100E900034BFA2EBC742B2EBC74261EB57310CFB48
:100EA0000EF7B0EBC70072EB57720CFB08F734BFBC
:100EB000A2EBC702B2EBC70261EB5771039F4FEA87
:100EC000816141EA921104EBCC044FEAD1374FEA39
:100ED000826206FB07FC42EA90124FEA80604FEA0A
:100EE0001C4C0CFB0BF7D21B03FB0CF761EB07014F
:100EF0000CFB0EF7B0EB074072EB17420CFB08F748
:100F000034BFA2EB0742B2EB074261EB17414FEA55
:100F10008C554FEA910704EB9C2406FB07FC4FEA33
:100F20001C4C0CFB0BF7B0EBC74072EB573203FBCA
:100F30000CF734BFA2EBC742B2EBC74261EB5731AB
:100F40000CFB0EF7B0EBC70072EB57720CFB08F707
:100F500034BFA2EBC702B2EBC70261EB577115EBCE
:100F60004C254FEA816141EA92114FEA82624FEAD1
:100F7000D13742EA901206FB07FC44F100044FEA25
:100F800080604FEA1C4C0CFB0BF7D21B03FB0CF7E9
:100F900061EB07010CFB0EF7B0EB074072EB174259
:100FA0000CFB08F734BFA2EB0742B2EB074261EB40
:100FB000174115EB1C154FEA813141EA92414FEA86
:100FC000823242EA90424FEA80304FEA0C7644F196
:100FD000000448EA03434EEA0B484FF0000EB2EB20
:100FE000080C71EB030724BF624639464EEB0E0E28
:100FF0004FF0000B0018524149414BEB0B0BB2EB89
:10100000080C71EB03077BF1000B24BF62463946E5
:101010004EEB0E0E4FF0000B0018524149414BEBC6
:101020000B0BB2EB080C71EB03077BF1000B24BF39
:10103000624639464EEB0E0E51EA020718BF46F0E3
:10104000010616EB0E7655F1000254F1000103D5AE
:10105000BDE88901BDE80088BDE88901BDE8004818
:10106000B619524141EB0101A3F1010370478080A1
:101070007F7E7D7C7B7A79787776767574737271F2
:1010800071706F6E6E6D6C6C6B6A6A6968686766AA
:1010900066656464636362616160605F5F5E5E5D3C
:1010A0005D5C5C5B5B5A5A595958585757565655B0
:1010B00055555454535352525251515050504F4F12
:1010C0004F4E4E4D4D4D4C4C4C4B4B4B4A4A4A4962
:1010D00049494848484747474746464645454544A5
:1010E0004444444343434342424242414141002B32
:1010F0009C4630D477002BD01CB54FEA370703B499
:101100004FF010004FF01001BAF1000F06D0BCF103
:10111000000FDCBF40F0080040F008014FF0000075
:101120000FBCBDE810400BF1010BBBF1010F08BF74
:101130005FEA170722BF12F1010211F101014FF01E
:10114000004143F1000300F0004043EA0000704713
:10115000F9D35708D0E746EA064613F1400F4FEAA5
:1011600016461FDD13F1200FDFBF16430A4600218C
:1011700020335B42BED0C3F1200746EA064602FA9E
:1011800007F74FEA164646EA0706C3F1200722FA98
:1011900003F201FA07F721FA03F14FF0000342EAE4
:1011A0000702A7E746EA020646EA06464FEA16465F
:1011B00046EA0106BCBF46EA0646360C4FF000037D
:1011C0004FF000024FF0000194E72DE9804C9A4661
:1011D000934670B491E8380007C831EA400C48BF24
:1011E00034EA430C03D5FFF7E6FDFFF780FFF0BCC0
:1011F000BDE8008C2DE9804C9A46934670B491E886
:10120000380007C810F0804F08BF13F0804F03D19B
:1012100000F005F8FFF76BFFF0BCBDE8008C20F094
:101220007F4780EA030023F07F4C07EB0C03A3F514
:101230007C5300F00040A3F1FE0392F0000F00F099
:10124000B38095F0000F00F077802DE901494FEA57
:1012500011404FEA144621EA004800FB06FC24EA4C
:10126000064708FB06F607FB08F800FB07F718EB34
:1012700006484CEB164C4FEA124B18EB07484FEA66
:1012800015464CEB174022EA0B4E0BFB06FC25EAF9
:1012900006470EFB06F607FB0EFE0BFB07F71EEBE1
:1012A000064E4CEB164C4FF000061EEB074E4CEB77
:1012B000174B18EB0B0840F1000018EB0E0B58EB26
:1012C000000840F100008F1A4FF000013CBFC943F5
:1012D000661B14BFB5EB040C00213CBFC943F61BD1
:1012E0004FEA17444EEA8E0E27EA04454FEA1C47A0
:1012F00004FB07622CEA074C05FB07F70CFB05F61D
:1013000004FB0CFC16EB074642EB174216EB0C46AF
:1013100042EB1C421BEB060658EB0202414146EA37
:101320009E0601D5BDE80189B619524141EB010184
:10133000A3F10103BDE801894FEA14454FEA1147C3
:1013400024EA054621EA074C05FB07F406FB07F7EC
:101350000CFB06F105FB0CFC11EB074144EB1744B9
:101360004FEA124711EB0C4144EB1C4422EA074CB4
:1013700005FB07F206FB07F70CFB06F605FB0CFC6A
:1013800016EB074642EB174216EB0C4642EB1C45A8
:101390006A1854F1000148BF7047B619524141EB39
:1013A0000101A3F10103704795F0000F37D04FEA18
:1013B00011424FEA144721EA024624EA074C02FB95
:1013C00007F106FB07F70CFB06F402FB0CFC14EB21
:1013D000074441EB17414FEA154714EB0C4441EB2E
:1013E0001C4125EA074C02FB07F506FB07F70CFB3F
:1013F00006F602FB0CFC16EB074645EB174516EB11
:101400000C4645EB1C42121951F1000148BF7047D0
:10141000B619524141EB0101A3F1010370474FEAB4
:1014200014454FEA114724EA054621EA074C05FB1B
:1014300007F106FB07F70CFB06F24FF0000605FB71
:101440000CFC12EB074241EB174112EB0C4251EB43
:101450001C4148BF7047921841EB0101A3F1010301
:1014600070470000F8B504460020009020688168AD
:1014700011F0010F41D18168214A11422ED18168BA
:10148000D5432940491C81601E48806800F0E07007
:1014900000020DD51C481D490068B0FBF1F0401C4E
:1014A00000EB4000800000E0401E00900028FBD1CF
:1014B00000F0E8FD06461BE0816811F0010F03D142
:1014C00081682940491C816000F0DCFD801B0228F6
:1014D0000ED920680068C043C00709D0E06D40F015
:1014E0001000E065206E40F0010020660120F8BD8C
:1014F00020680168C943C907DED10020F8BD00009B
:101500003F0000800003005010000020400D030049
:10151000FEE77047002240F6B83306E00021491C80
:1015200089B29942FBD3521C92B28242F6D37047E1
:1015300072B6FEE72DE9F047044690F858009CB0DB
:101540000E464FF00009012815D0012084F85800FC
:1015500000251795189520684FF0A04840450ED1FA
:10156000284F0097384602F013FB8246206802F0AD
:101570000FFB60B10EE002201CB0BDE8F087E06D0B
:1015800040F02000E06584F858500120F4E7BAF1FB
:10159000000F09D0E06D40F02000E0654FF0010938
:1015A00084F858504846E7E71748326840F61F71FC
:1015B000002A826822F4604216D094F8383042EA59
:1015C000433273681A438260D8F80820BB6802F07F
:1015D000010203F001031A43E2D1B36832681A43EF
:1015E00083688B431A430BE08260D8F80820BB68FD
:1015F00002F0010203F001031A43D1D182688A4349
:101600008260CDE700010050000300502DE9F84F43
:1016100000270446009790F85800DFF8E0930D4645
:10162000B846012811D0012684F85860206802F0DD
:10163000ABFA60B1E06D40F02000E0655FF00107BB
:1016400084F858803846BDE8F88F0220FBE7D5E9DA
:1016500000210C23206803EA91131844036B01F066
:101660001F014FF01F0C0CFA01FCC2F3846223EA45
:101670000C038A4013430363206802F085FA824614
:10168000206802F07DFA5AEA00003CD1AA68296875
:101690002068B2F1004F37D002F07EFA206841692D
:1016A00021F00041416120686969C268C2F3C1024A
:1016B000520091402A69042A31D000EB82002B6845
:1016C000026EDFF83CC303F0F84302EA0C020B435E
:1016D0001A4342F00041016620682A69A96900EBBB
:1016E0008200026E22F080720A430266297F22681D
:1016F0002869012910D0002102EB8000026E22F03F
:1017000000720A4302667DE0002202F045FA20687A
:10171000416941F00041C5E74FF00071ECE700215D
:1017200002F028FA400320684FF0000172D002F066
:1017300021FA90FAA0F0B0FA80F1286842036ED046
:1017400090FAA0F0B0FA80F0814204D10022114654
:10175000206802F030FA0121206802F00BFA400301
:1017600020684FF001015DD002F004FA90FAA0F079
:10177000B0FA80F12868420359D090FAA0F0B0FA8C
:1017800080F0814204D100220121206802F013FA86
:101790000221206802F0EEF9400320684FF00201B8
:1017A00048D002F0E7F990FAA0F0B0FA80F128688A
:1017B000420344D090FAA0F0B0FA80F0814204D104
:1017C00000220221206802F0F6F90321206802F0CD
:1017D000D1F9400320684FF0030133D002F0CAF979
:1017E00090FAA0F0B0FA80F1286842032FD090FA66
:1017F000A0F0B0FA80F0814204D1002203212068D9
:1018000002F0D9F92068816811F0010F22D0ACE014
:1018100000E004E002F0AEF9C0F384618DE7C0F3AC
:10182000846091E702F0A6F9C0F38461A2E7C0F3F7
:101830008460A6E702F09EF9C0F38461B7E7C0F3C5
:101840008460BBE702F096F9C0F38461CCE7C0F393
:101850008460D0E72A7B296850F8B03FC1F3120CAE
:1018600023EA0C0302F0180C664A22FA0CF20A4032
:1018700013430360E968494577D1286841031CD0C8
:1018800090FAA0F1B1FA81F1491C01F01F01092978
:101890004FEA403132D8002912D000BF90FAA0F1AF
:1018A000B1FA81F101F1010101F01F0106FA01F61F
:1018B00009D100BFC0F3846109E0C0F38461E3E7AC
:1018C000C0F38461EEE790FAA0F1B1FA81F101F181
:1018D000010101F01F0146EA816102D1C0F3846079
:1018E00003E090FAA0F0B0FA80F000F1010000F0FF
:1018F0001F0000EB400041EA005132E000290ED009
:1019000090FAA0F1B1FA81F101F1010101F01F019A
:1019100006FA01F606D100BFC0F3846106E0C0F309
:101920008461F1E790FAA0F1B1FA81F101F10101CE
:1019300001F01F0146EA816102D1C0F3846003E037
:1019400090FAA0F0B0FA80F000F1010000F01F0062
:101950002D4A00EB400002EB005041EA000141F04B
:101960000071AA68206802F017F928482A68024224
:101970003FF466AE26488168264B01F0E0719A423A
:1019800002D0254B9A421CD10B021AD42268B2F124
:10199000A04F7FF455AE826841F4000122F0E0725E
:1019A0000A4382601D481E490068B0FBF1F0401CEC
:1019B00000EB4000800000E0401E00900028FBD1BA
:1019C0003EE6184D184BAA4207D1CD0105D4226836
:1019D0009A42F5D041F0807109E0144DAA42EFD14E
:1019E0004A02EDD422689A42EAD041F4800182682A
:1019F00022F0E0720A43826022E6000000007F408D
:101A000000F0FF03FFFF0700000020FE0000088039
:101A100000030050000021C31000C09010000020FF
:101A2000400D0300000052C700010050000084CBAD
:101A30000068006C70470000F8B54FF00005040026
:101A40002E46009502D0E06D10B107E00120F8BDF0
:101A5000204600F0EBF8266684F85860206881681C
:101A6000C1F3407119B18168684A114081602068F2
:101A70008168C1F3007189B98168654A114041F0FC
:101A800080518160634864490068B0FBF1F0400018
:101A9000801C00E0401E00900028FBD12068816877
:101AA000C1F3007141B9E16D41F01001E165216EB2
:101AB00041F001012166012502F066F8E16DC906D9
:101AC00000D430B1E06D40F01000E06501252846FB
:101AD000F8BDE06D20F4807040F00200E065206801
:101AE000806810F0010F11D14FF0A04080684B4981
:101AF00000F00100896801F00101084306D148485F
:101B00006168826822F47C120A438260E168E06BBB
:101B1000627F0843A16841EA4231084394F82410E7
:101B200040EA0140012904D1218D3E4A02EB4141A6
:101B30000843E16A29B101F47871226B014342EA5A
:101B400001002268D168384B19400143D1602068F8
:101B50000169626B21F0406111430161206802F06C
:101B60000FF870BB207F94F83810800340EA4102E0
:101B70002168C86844F2020398431043C860206992
:101B80000028206801690AD041F480310161206891
:101B900050F8C01F22696FF30D01114307E021F4D3
:101BA00080310161206850F8C01F6FF30D010160A2
:101BB00094F8400001280CD02068016921F001014F
:101BC0000161606901282068016B21F00F0111D0CB
:101BD00013E0D4E911010843D4E913121143084377
:101BE00021680A6940F2FC739A43104340F00100F7
:101BF0000861E6E7226A521E11430163E06D20F09E
:101C0000020040F00100E06561E70000C0FFFF5FF7
:101C1000C0FFFF7F10000020400D030000010050B6
:101C2000000300500000FEFF0740F0FF2DE9F043E5
:101C300097B00446142111A8FEF777FC44216846AA
:101C4000FEF773FC4FF0005021682D4D0327DFF89D
:101C5000B49086132C4C4FF00008B1F1A04F10D077
:101C60002A4A914248D100960F90684600F008FB3E
:101C700008B1FFF75DFC2868401C2860012824D0CB
:101C80002BE000960F90684600F0FAFA08B1FFF7D3
:101C90004FFC2868401C2860012807D1E06C40F404
:101CA0000050E064E06C00F400501690E06C40F0EE
:101CB0000200E064E06C11A900F0020016904FF4FD
:101CC000805081E88101484614E0E06C40F4005007
:101CD000E064E06C00F400501690E06C40F002000C
:101CE000E064E06C11AA00F00200169082E8C001E6
:101CF00011A9484600F098F817B0BDE8F08300003D
:101D000000000020000400480010024000010050C4
:101D10002DE9F04104463848806800F01F0520682E
:101D200001F032FF18B102210846BDE8F08194F8B5
:101D3000580001280CD0012084F858002046FFF7F5
:101D400091FB01004FF0000304D084F85830EBE71A
:101D50000220EAE7E06D40F60162904340F48070B3
:101D6000E065264A20684FF0A046904201D13746F0
:101D700000E00746874200D01DB9E76D27F48017C1
:101D8000E765E76DFF0404D5276E27F00607276691
:101D900000E023661C27076084F8583020689042D2
:101DA00001D1334600E00346834215D0A5B1052D8D
:101DB00012D0092D10D0E36D43F48013E3659042F7
:101DC00000D13046C0688001AED5E06D20F40050EF
:101DD00040F48050E065A7E7C268920105D5E26D46
:101DE00022F4005242F48052E2658268044B1A40A9
:101DF000121D826098E700000003005000010050AF
:101E0000C0FFFF7F70B5044600F03CF90546601C3A
:101E100002D004484068044400F034F9401BA0425A
:101E2000FAD370BD040000202DE9F04FDFF82092B6
:101E3000002301260324A9F1040B85B00F2709F123
:101E4000040AABF1040EFAE006FA03F52A407CD04E
:101E500091F804C00CF0030CBCF1010F02D0BCF1EE
:101E6000020F26D1D0F808C0CDF800C04FEA430CCD
:101E700004FA0CF8CDF810C0DDF800C02CEA080C0C
:101E8000CDF800C0D1F80C80DDF810C008FA0CF8CD
:101E9000DDF800C048EA0C08C0F80880D0F804C09B
:101EA0002CEA050C0D79C5F300159D4045EA0C059B
:101EB00045600D79ED43AD070ED0C5684FEA430884
:101EC00004FA08FC25EA0C05D1F808C00CFA08FC55
:101ED0004CEA050CC0F80CC00D7905F00305022D85
:101EE00016D1DD0800EB850CCDF808C0DCF82080A9
:101EF0005D074FEAD56C07FA0CF528EA05080D696D
:101F000005FA0CF5DDF808C045EA0805CCF82050C4
:101F100005684FEA430CCDF808C004FA0CFC25EA2A
:101F20000C0591F804C00CF00308DDF808C008FAAD
:101F30000CF848EA0508C0F800804D6815F4403FE9
:101F40007CD0444DD5F860C000E077E04CF0010C47
:101F5000C5F860C02D6E23F0030C05F00105009557
:101F60003D4D65440295AD684FEA837C4FEA1C788D
:101F700007FA08FC25EA0C05B0F1904F06D0DFF80F
:101F8000DCC0604505D14FF0010C20E04FF0000CA3
:101F90001DE0DFF8CCC0604502D14FF0020C16E026
:101FA000DFF8C0C0604502D14FF0030C0FE0DFF84E
:101FB000B8C0604502D14FF0040C08E0DFF8ACC0B7
:101FC000604502D14FF0050C01E04FF0060C0CFA11
:101FD00008FC4CEA050C029DC5F808C0D9F8005071
:101FE000CC46D1F8048095435FEAC82800D5154354
:101FF000CCF80050DAF80050D446D1F8048095436C
:102000005FEA882800D51543CCF80050DBF8005073
:10201000DC46D1F8048095435FEA883800D5154343
:10202000CCF80050DEF80050F446D1F80480954317
:102030005FEAC83800D51543CCF800505B1C0A682D
:1020400032FA03F57FF400AF05B0BDE8F08F000071
:102050000804014000100240000001400004004854
:1020600000080048000C0048001000480014004818
:102070000069084000D0012070470AB181617047B3
:1020800081627047014880687047000004000020AA
:102090000248816842681144816070470400002052
:1020A00010B50024032000F073F80F2000F008F8AA
:1020B00008B1012401E000F025F8204610BD000021
:1020C00070B50E4E05460024706898B14FF47A71D1
:1020D000B1FBF0F00A490968B1FBF0F000F060FDD7
:1020E00040B9102D06D200222946501E00F030F8CB
:1020F000356000E00124204670BD0000040000208F
:10210000100000200A4882B0016E41F00101016612
:10211000016E01F001010091816D41F080518165F6
:10212000806D00F08050009002B000F0A1B8000077
:1021300000100240002809DB00F01F02012191403D
:102140004009800000F1E020C0F800117047000055
:10215000F0B40E4B1B680C46C3F30223C3F1070512
:10216000042D00D90425191D072901D2002300E000
:10217000DB1E012606FA05F1491E214099409E40CA
:10218000761E16403143F0BC02F0BDBC0CED00E001
:10219000064900F0070208684FF6FF03184040EABE
:1021A0000220034A10430860704700000CED00E075
:1021B0000000FA052B492C4B0A6832214A432B496F
:1021C00040B1B0F5007F086829D020F4C06040F429
:1021D00080602CE00868C0F34120022804D051F848
:1021E000800F20F4807022E0D1F8800020F480700D
:1021F000C1F88000086820F4C06040F400700860F6
:10220000B2FBF3F0401C00E0401E4A69520501D5C4
:102210000028F9D1486940050AD503207047C0F36A
:102220004120022806D051F8800F40F480700860E9
:1022300000207047D1F8800040F48070C1F8800021
:10224000086820F4C06040F400700860B2FBF3F04E
:10225000401C00E0401E4A695205DBD50028F9D138
:10226000D8E700001000002040420F00007000403E
:102270000248816841F480418160704700700040ED
:102280002DE9F8430446006800269D4D00035ED505
:10229000A86D0027C00008D4A86D40F08050A86544
:1022A000A86D012700F080500090DFF85892D9F80F
:1022B000001041F48071C9F80010FFF7E3FE80467A
:1022C00006E000BFFFF7DEFEA0EB080002282BD8D7
:1022D000D9F80000C005F5D5D5F8900010F440708D
:1022E00014D0216C814211D0D5F89000D5F890100F
:1022F00020F4407041F48031C5F89010D5F890106A
:1023000021F48031C5F89010C5F89000C00711D0B5
:10231000FFF7B8FE804641F2883907E0FFF7B2FECA
:10232000A0EB0801494501D903260BE0D5F8900040
:102330008007F3D5D5F89000216C20F44070084355
:10234000C5F890001FB1A86D20F08050A8652078D6
:10235000C00707D0D5F88800616820F00300084363
:10236000C5F888002078800707D5D5F88800A168CF
:1023700020F00C000843C5F888002078400707D5F6
:10238000D5F88800E16820F030000843C5F88800DF
:102390002078000707D5D5F88800216920F0C00013
:1023A0000843C5F888002078800607D5D5F888004E
:1023B000616920F440600843C5F888002078400631
:1023C00007D5D5F88800A16920F440500843C5F826
:1023D00088002078000607D5D5F88800E16920F448
:1023E00040400843C5F888002088C00507D5D5F8C7
:1023F0008800216A20F440300843C5F8880020880E
:10240000800507D5D5F88800616A20F4402008438C
:10241000C5F88800208840050FD5D5F88800A16A46
:1024200020F440100843C5F88800A06AB0F5801F6A
:1024300003D1E86840F48010E860208800050FD5DB
:10244000D5F88800E16A20F440000843C5F8880008
:10245000E06AB0F5800F03D1E86840F48010E860CE
:102460002088C0040FD5D5F88800216B20F040707B
:102470000843C5F88800206BB0F1807F03D1E8687D
:1024800040F48010E86020884FF0006180040ED591
:10249000D5F88800626B20F040601043C5F88800D2
:1024A000606B884203D1E86840F48010E8602088BF
:1024B00040040ED5D5F88800A26B20F04060104390
:1024C000C5F88800A06B884203D1E86840F480100A
:1024D000E860208800040FD5D5F88800E16B20F073
:1024E00040500843C5F88800E06BB0F1805F03D12D
:1024F000E86840F48030E8603046BDE8F8830000CA
:1025000000100240007000402DE9F0470E46050023
:102510004FF0000725D0DFF8AC81D8F8000000F0BC
:102520000F00B0420CD2D8F8001021F00F01314357
:10253000C8F80010D8F8000000F00F00B04210D129
:102540002968614CC80741F2883A5AD06868DFF8B8
:102550007C91032808D0022820682DD0400500284F
:102560002CDB0120BDE8F08720688001F9D5E06808
:1025700000F00302E068C0F30310401C032A19D0E6
:10258000534A00BFB2FBF0F0E268C2F306225043A8
:10259000E268C2F34162521C5200B0FBF2F04845BF
:1025A00017D9A06810F0F00F0CD0880711D5A868D3
:1025B00040B10EE0474AE5E78003D0E700F0B6F807
:1025C000484506D9A06820F0F00040F08000A060E7
:1025D0008027A068696820F003000843A060FFF727
:1025E00051FD814606E000BFFFF74CFDA0EB09015D
:1025F00051453AD8A068696800F00C00B0EB810F33
:10260000F2D12868810714D5400703D5A06840F4AB
:10261000E060A0602878000705D5A06820F460502D
:1026200040F4E060A060A068A96820F0F0000843D2
:1026300004E0802F03D1A06820F0F000A060D8F85B
:102640000010404601F00F01B14216D9016821F097
:102650000F0131430160FFF715FD074607E000BF9A
:10266000FFF710FDC11B514501D903207AE7D8F8C7
:10267000000000F00F00B042F2D12878400705D5E5
:10268000A068E96820F4E0600843A06028780007AB
:1026900006D5A068296920F4605040EAC100A06016
:1026A00000F044F8A1680C4AC1F30311515C01F039
:1026B0001F01C8400949086009480068BDE8F047A3
:1026C000FFF7FEBC002002400010024000B4C4042A
:1026D0000024F40000366E01825300081000002030
:1026E000040000200548064900688968054AC1F3CE
:1026F0000221515C01F01F01C8407047100000200A
:102700000010024092530008054806490068896895
:10271000054AC1F3C221515C01F01F01C840704756
:10272000100000200010024092530008184910B514
:102730008868C0F381021748012A0BD08A68164BBB
:10274000C2F38102022A06D08A68C2F38102032AF8
:1027500003D0002010BD184610BDCA6802F0030463
:10276000CA68C2F30312521C032C02D0B0FBF2F071
:1027700001E0B3FBF2F0CA68C968C2F30622504315
:10278000C1F34161491C4900B0FBF1F010BD0000EC
:10279000001002400024F40000366E012DE9F843D9
:1027A00004007AD02078F84DC00747D0A868E968BF
:1027B00000F00C0001F003010C2802D0082817D00B
:1027C00001E0032914D06068B0F5803F17D0B0F560
:1027D000A02F286817D020F480302860286820F4C3
:1027E000802028606068E0B1FFF74CFC064614E0EA
:1027F0002868800322D560680028D2D01EE02868AF
:1028000040F48030EDE740F480202860F7E700BF17
:10281000FFF738FC801B642870D828688003F7D540
:102820000CE0FFF72FFC064605E000BFFFF72AFC8F
:10283000801B6428F0D828688003F7D420788007AC
:102840004CD5A868E96800F00C0001F003010C28E1
:1028500002D004280DD001E002290AD0E068002847
:1028600028682BD040F480702860FFF70BFC0646E8
:1028700019E02868400502D5E068002891D0686812
:10288000217C20F0FE4040EA01606860BF4800689B
:10289000FFF716FC002800D120E072E1FFF7F2FB01
:1028A000801B0228B8D828684005F7D56868217CC5
:1028B00020F0FE4040EA016068600FE020F4807084
:1028C0002860FFF7DFFB064605E000BFFFF7DAFBF5
:1028D000801B0228A0D828684005F7D4207800077C
:1028E00029D560690028D5F8940013D040F0010084
:1028F000C5F89400FFF7C6FB064606E090E000BF6F
:10290000FFF7C0FB801B022886D8D5F8940080070B
:10291000F6D510E020F00100C5F89400FFF7B2FBF7
:10292000064604E0FFF7AEFB801B022878D8D5F8F6
:1029300094008007F6D42078400761D5A86D002662
:10294000C00008D4A86D40F08050A865A86D01268D
:1029500000F0805000908E480168C90511D40168CC
:10296000804641F480710160FFF78CFB074604E06C
:10297000FFF788FBC01B022852D8D8F80000C0051A
:10298000F6D5A068012815D00528D5F8900016D0F6
:1029900020F00100C5F89000D5F8900020F0040068
:1029A000C5F89000A06841F28838B8B1FFF76AFB1B
:1029B00007460EE0D5F8900040F00100F0E740F047
:1029C0000400C5F89000F5E7FFF75CFBC11B41452B
:1029D00026D8D5F890008007F6D50CE0FFF752FB1B
:1029E000074604E0FFF74EFBC11B414518D8D5F858
:1029F00090008007F6D41EB1A86D20F08050A86525
:102A00002078800629D5A0690028D5F8980013D031
:102A100040F00100C5F89800FFF734FB064606E0D9
:102A200075E000BFFFF72EFB801B02286FD8D5F89A
:102A300098008007F6D510E020F00100C5F8980056
:102A4000FFF720FB064604E0FFF71CFB801B022873
:102A50005DD8D5F898008007F6D4E069F0B3A9688E
:102A6000C1F3810103295DD00228286820F080701D
:102A7000286003D0FFF706FB04464BE0FFF702FB9C
:102A8000064604E0FFF7FEFA801B02283FD82868BC
:102A90008001F7D4F4E908016FF00F0202EB011195
:102AA0000843218A5204490802EB4151A26841EAD5
:102AB00002210843217D4FF07E42490802EB41612B
:102AC0000843217B40EAC160E968324A114008436B
:102AD000E860286840F08070286000E05EE0E86808
:102AE00040F08070E860FFF7CDFA044605E000BFD3
:102AF000FFF7C8FA001B022809D828688001F7D51B
:102B00004CE000BFFFF7BEFA001B022802D90320E9
:102B1000BDE8F88328688001F4D4E8681E490840BD
:102B2000E8603BE00128F3D0E868226A00F0030186
:102B3000914226D1616A00F0F002090110399142F8
:102B40001FD1A26A00F4FE41B1EB022F19D194F813
:102B50002C2000F07841B1EBC26F12D1218E00F42D
:102B6000C00249084905A1F50011914209D194F824
:102B7000341000F0C06049084906A1F1007181429B
:102B80000CD00120C4E70000001002400400002027
:102B9000007000400C809F01FCFFEEFE0020B7E7B4
:102BA00010B5401EB0F1807F01D3012010BD4FF061
:102BB000E02460610F21601701F0A5FF0020A061F3
:102BC00007202061002010BD704770477047704794
:102BD00070477047F0B590F83C20012A3AD00125A3
:102BE00080F83C50022280F83D2003685A689C68B7
:102BF000194E1A4FB34201D0BB4204D122F4700CDB
:102C00004A6842EA0C02DFF858C002EA0C02D1F826
:102C100000C04CEA020CC3F804C00268B2420DD0F6
:102C2000B2F1804F0AD00F4B9A4207D00E4B9A4216
:102C300004D0BA4202D00D4B9A4204D1896824F0E4
:102C400080031943916080F83D50002180F83C10CA
:102C50000846F0BD0220F0BD002C014000340140C8
:102C60008FFFFFFD000400400008004000400140CD
:102C7000704710B5040003D094F83D0010B107E090
:102C8000012010BD002084F83C00204600F022F80E
:102C9000022084F83D00211D206801F09BFB0120EB
:102CA00084F8480084F83E0084F83F0084F840002F
:102CB00084F8410084F8420084F8430084F844001A
:102CC00084F8450084F8460084F8470084F83D0005
:102CD000002010BD10B586B0044614216846FDF7EB
:102CE00024FC2268002330480221B2F1804F25D015
:102CF0002E4CA24245D1826D42F002028265826D65
:102D000002F002020592C26C42F00202C264C06C80
:102D100000F00200059010208DE80B00CDE9033192
:102D200069462348FFF780F8002211461D20FFF76F
:102D30000FFA1D20FFF7FEF906B010BD826D42F0BC
:102D400001028265826D02F001020592C26C42F0BE
:102D50000102C264C06C00F0010005904FF4004015
:102D60008DE80B000120CDE9033069464FF090401B
:102D7000FFF75AF8002211461C20FFF7E9F91C2042
:102D8000D8E70C498A42D7D1016E41F4003101667F
:102D9000006E002200F40030059011461920FFF764
:102DA000D7F91920C6E700000010024000040040D7
:102DB000000400480044014090F83D10012901D072
:102DC00001207047022180F83D100168CA6842F076
:102DD0000102CA600068104988420ED0B0F1804FED
:102DE0000BD00E49884208D00D49884205D00D49C4
:102DF000884202D00C49884207D181680B4A1140B1
:102E0000062906D0B1F5803F03D0016841F00101E9
:102E10000160002070470000002C014000040040C9
:102E2000000800400034014000400140070001005C
:102E300070B5044690F83C000025012814D0012606
:102E400084F83C60022084F83D0022689068364B8C
:102E5000184020F47F409060086870282ED010DC65
:102E600010F00F0F03D021E04FF0020070BD4FEAC9
:102E70002012072A1AD2DFE802F0525252524A3880
:102E800040002A4BC21A984249D009DCB0F5805F55
:102E90000DD0B0F5005F1CD0B0F1101F06D13EE0A0
:102EA000102A3CD0202A3AD0502A38D0012584F864
:102EB0003D60002084F83C00284670BDCB68D1E915
:102EC0000121206801F0F1FA2068816841F0770162
:102ED00009E0CB68D1E90121206801F0E6FA206819
:102EE000816841F480418160E1E7CA6849682068EF
:102EF00001F0F0FA5021206806E0CA6849682068AD
:102F000001F030FB6021206801F0DAFACFE7CA68EF
:102F10004968206801F0DEFA40212068F4E7226861
:102F200001461046F0E7000088FFCEFF20001000A9
:102F30002DE9F0410546006811490026114C124F59
:102F400088420BD10021114800F07CFA0C49401C4A
:102F50002431E0600E60B7FBF0F0A06028684FF00D
:102F60008045A84209D10021094800F06BFA401CB5
:102F700060616E62B7FBF0F02061BDE8F081000097
:102F8000000400401400002040420F00780100209F
:102F90002C0100202DE9F041054690F83C00002668
:102FA0000C46012810D0012085F83C0072B1042A9B
:102FB0001CD0082A2CD00C2A50D00126002085F8DD
:102FC0003C003046BDE8F0810220FBE7D4E9001266
:102FD000E368286801F090FA2868816921F00C0103
:102FE000816128688169A26811430FE0D4E9001269
:102FF000E368286801F0C8FA2868816921F4406113
:10300000816128688169A26841EA02218161D5E76E
:103010002868D4E9002C277B036A016A21F48071B7
:103020000162C16923F4206321F0030141EA0C012C
:1030300021F0F00C39074FF420674CEA116107EAE0
:1030400002221A43C16102622868C16921F00C01A1
:10305000C1612868C169A26811432BE02868D4E9DE
:103060000021E768036AD0F820C02CF4805CC0F827
:1030700020C0D0F81CC023F420432CF4407C4CEA40
:10308000012121F4704C4FF6FF7101EA07314FF432
:10309000204741EA0C0107EA02321A43C161026289
:1030A0002868C16921F44061C1612868C169A268CA
:1030B00041EA0221C16181E710B5040003D094F810
:1030C0003D0010B107E0012010BD002084F83C0055
:1030D000204600F022F8022084F83D00211D2068DF
:1030E00001F078F9012084F8480084F83E0084F863
:1030F0003F0084F8400084F8410084F8420084F8DE
:10310000430084F8440084F8450084F8460084F8BD
:10311000470084F83D00002010BD704730B50446DC
:10312000002571B1042911D0082914D00C2917D019
:10313000102918D094F8430094F84720012817D19B
:1031400014E094F83E0094F84420F7E794F83F0028
:1031500094F84520F2E794F8400094F84620EDE713
:1031600094F84100E8E794F84200E5E7012A01D02D
:10317000012030BD022079B1042916D008291DD0C4
:103180000C2949D010294AD084F8430084F847001C
:103190000C2947D001253DE084F83E0084F8440026
:1031A0002068C26842F0020210E084F83F0084F810
:1031B00045002068C26842F0040207E084F840003D
:1031C00084F846002068C26842F00802C26001220A
:1031D000206801F05DF91649206888420ED0B0F1F0
:1031E000804F0BD01349884208D01349884205D03C
:1031F0001249884202D01249884207D18168114A97
:103200001140062906D0B1F5803F03D0016841F096
:1032100001010160284630BD84F84100B6E784F81A
:103220004200B3E72068C26842F01002CEE7000017
:10323000002C014000040040000800400034014020
:1032400000400140070001002DE9F04104460068FC
:10325000C66805694FF00007A90713D5B10711D556
:10326000F91E0161012020772068806980072046CF
:1032700002D0FFF75DFE04E000F0B7F8204600F052
:10328000B5F82777680716D5700714D521686FF051
:1032900004000861022020772068806910F4407FD4
:1032A000204602D0FFF744FE04E000F09EF82046DE
:1032B00000F09CF82777280715D5300713D521682B
:1032C0006FF008000861042020772068C06980073B
:1032D000204602D0FFF72CFE04E000F086F82046DE
:1032E00000F084F82777E80616D5F00614D5216893
:1032F0006FF010000861082020772068C06910F482
:10330000407F204602D0FFF713FE04E000F06DF886
:10331000204600F06BF82777E80708D0F00706D0C2
:1033200021686FF001000861204600F061F828066E
:1033300001D4A80408D5300606D521686FF40250E0
:1033400008612046FFF741FCE80508D5300606D5A0
:1033500021686FF4807008612046FFF735FC68062D
:1033600008D5700606D521686FF040000861204638
:1033700000F07DF8A80608D5B00606D521686FF0E4
:10338000200008612046FFF721FCE80208D5F00282
:1033900006D521686FF4801008612046FFF718FCFD
:1033A000A80208D5B00206D521686FF400100861A4
:1033B0002046FFF70CFC680208D5700206D521688C
:1033C0006FF4800008612046FFF703FC28020AD54D
:1033D000300208D521686FF4000008612046BDE87E
:1033E000F041FFF745BCBDE8F08170477047000031
:1033F00000681049884219D10F48002102783AB17B
:103400008288521C92B28280142A01D3017081807A
:10341000427812B1C18851B10021C18007480078BB
:10342000002803D006490878401C08707047012125
:10343000F3E70000004401401400002034000020A5
:10344000350000200246002041B1042909D0082996
:103450000AD00C2901D11068006C70471068406BCD
:1034600070471068806B70471068C06B704770477A
:1034700090F88410012918D0012180F884102421AB
:10348000C0F8881001680A680B6823F001030B601C
:1034900022F0005100224266036819602021C0F822
:1034A000881080F88420104670470220704770B55D
:1034B000044690F8840001281DD0012084F884007F
:1034C0002420C4F8880020680568026822F0010200
:1034D00002602068826822F060620A4382602046AF
:1034E00001F06EF8206805602020C4F888000020F4
:1034F00084F8840070BD022070BD70B5044690F859
:10350000840001281DD0012084F884002420C4F800
:10351000880020680568026822F0010202602068C5
:10352000826822F060420A438260204601F048F837
:10353000206805602020C4F88800002084F88400FA
:1035400070BD022070BD10B5040003D0D4F888000F
:1035500010B107E0012010BD002084F8840020464F
:1035600000F026F82420C4F888002068016821F0C3
:1035700001010160A06A10B1204601F043F8204625
:1035800001F024F90128E6D02068416821F4904137
:1035900041602068816821F02A018160206801680B
:1035A00041F0010101602046BDE8104001F08EB8F5
:1035B00010B598B00446142111A8FCF7B6FF4421B9
:1035C0006846FCF7B2FF17492068884228D10120DD
:1035D0000024CDE900046846FEF752FE08B1FDF76D
:1035E000A7FF1148016E41F480410166016E01F4AC
:1035F00080411691C16C41F00101C164C06C11A9F8
:1036000000F0010016904FF4C06011900220CDE947
:1036100012040720CDE914404FF09040FEF704FC5F
:1036200018B010BD0038014000100240FEE770B530
:103630000446082516E000F02BFE142001F07AFA6B
:1036400004F0800000F052FE142001F073FA6006CE
:10365000040E142001F06EFA012000F019FE14206F
:1036600001F068FA6D1EEDB24FF00000E3D200F0F9
:103670000FFEBDE87040142001F05CBA10B50120C7
:1036800000F034FE142001F055FA012000F000FE95
:10369000142001F04FFA002000F028FE142001F061
:1036A00049FA002000F0F4FDBDE81040142001F0BC
:1036B00041BA10B5002000F0EBFD142001F03AFAF9
:1036C000002000F013FE142001F034FA012000F075
:1036D000DFFD142001F02EFA012000F007FEBDE806
:1036E0001040142001F026BA10B5052400F0E8FDC2
:1036F000142001F01FFA012000F0CAFD142001F08F
:1037000019FA05E0641EA4B2142001F013FA64B1A2
:1037100000F0CAFD0028F5D100F0BAFD00F0F2FD7E
:10372000142001F007FA002010BD00F0EBFDFFF7B8
:10373000C0FF012010BD000000B585B0142168460F
:10374000FCF7F3FE4FF6FF70009000200321CDE957
:103750000201019069460248FEF766FB05B000BD14
:103760000008004800B585B014216846FCF7DDFE6E
:103770004FF6FF700090012001900320039000207D
:10378000029069460248FEF74FFB05B000BD0000FD
:10379000000800482DE9F0410A4E804630680024B8
:1037A00085B22146204600F041F900F07FF94FF440
:1037B0009637404600F04EF9641CBC42F9D33560A0
:1037C000BDE8F0811408004870B586B01421684641
:1037D000FCF7ABFE1E48C16C41F00401C164C16C32
:1037E00001F004010591C16C41F00101C164C16C9B
:1037F00001F001010591C16C41F00201C164C06C8E
:10380000032500F0020005904FF4487001240026C3
:1038100003958DE8510069460E48FEF705FB20022E
:1038200003958DE851004FF0904469462046FEF71D
:10383000FBFAFFF797FFA06940F48070A06105488C
:103840001830016841F40871016006B070BD0000D5
:103850000010024000040048203AD2B2034B02EBB1
:10386000420203EB021200F023B800009A53000852
:103870002DE9F043DFF8348081460E46D8F8000089
:10388000002587B240F23F1407E021464846FFF783
:10389000E3FF103C6D1CA4B2761C32780AB1142DE3
:1038A000F3D3C8F80070BDE8F083000014080048A6
:1038B0002DE9F04791468A460026044600F0B6F806
:1038C000DFF84080012700BF00F0F0F85FF000054E
:1038D00039F8160007FA05F10842404601D1408840
:1038E00000E0008800F0B6F86D1C102DF0D3641CC9
:1038F000E4B25146204600F099F8761C182EE3D326
:10390000BDE8F0873C0000202DE9F04398461746BB
:1039100089460546002400F089F80F4EB8F1000FE3
:1039200016D100F0C3F803E0308800F093F8641C6F
:10393000BC42F9D3BDE8F08300F0B8F8308800F05D
:1039400089F86D1CEDB24946284600F06FF8641CFA
:10395000BC42F1D3EEE700003C00002070B50D4EF4
:10396000306885B2FFF730FF002000F017F80A4CEE
:10397000A080A088A0F50241303907D000F086FB76
:10398000002000F00BF8A080356070BD00F0F5FA63
:10399000F6E70000140800483C00002070B51D49FF
:1039A0000A6842F400720A600A6842F480720A608F
:1039B000184C103C226842F020022260164A106027
:1039C000086840F02000086000BF00BF00BF20680A
:1039D00040F020002060206840F480702060FFF7F5
:1039E000ABFE4FF09041886A40F48070886200BF5F
:1039F00000BF00BF0848001F006885B2886940F416
:103A000080708861FFF7AEFE206840F4007020608F
:103A1000284670BD280400481408004801B5BDF8C8
:103A200000000149488008BD3C00002010B50C464C
:103A30000146202000F068F82146BDE81040212012
:103A400000F062B801B5BDF800000149088008BD6A
:103A50003C000020134A116841F4007111601149C3
:103A600010390B6843F480730B600B6843F020033C
:103A70000B600D4B1860106840F02000106000BF14
:103A800000BF00BF086840F020000860086840F4EC
:103A90008070086000BF00BF00BF086840F400707D
:103AA0000860704728040048140800481449086852
:103AB00040F400700860086840F4807008601048A6
:103AC0001038026842F0200202600E4B22221A6077
:103AD0000A6842F020020A6000BF00BF00BF016810
:103AE00041F020010160016841F48071016000BF74
:103AF00000BF00BF016841F4007101607047000021
:103B00002804004814080048184B10B51A6842F4FD
:103B100000721A601A6842F480721A60134A103AEE
:103B2000146844F020041460114C2060186840F0C0
:103B30002000186000BF00BF00BF106840F02000E8
:103B40001060106840F4807010602160186840F0C8
:103B50002000186000BF00BF00BF106840F02000C8
:103B60001060106840F48070106010BD2804004898
:103B70001408004800EB8100006E00F0F840704728
:103B80008068C0F3C00070478068C0F38000704751
:103B90008068C0F380007047042303EAD15310B556
:103BA00018444369C1F3045107248C40A3438A405D
:103BB0001343436110BD00EB8100016E21F0004111
:103BC000114301667047000030B58BB000240894A3
:103BD0000994202168460A94FCF7A7FC1C484FF082
:103BE000A041042501604FF40031C0E90114C46014
:103BF0000461C0E90545047744770121016280F83A
:103C00002440C462046380F83840C46380F84040B4
:103C1000FDF712FF08B1FDF78BFC08A90C480894CA
:103C2000FDF788FC08B1FDF783FC0A4800900620E8
:103C3000CDE901047F200594CDE9030569460448D8
:103C4000FDF7E4FC002801D0FDF772FC0BB030BD9D
:103C5000540000200008302E30B589B0202168467D
:103C6000FCF763FC19481849002401604902C0E9C7
:103C70000114C46004250461C0E905450477447754
:103C80000121016280F82440C462046380F8384056
:103C9000C46380F84040FDF7CFFE08B1FDF748FC53
:103CA0000B4800900620CDE901047F200594CDE962
:103CB000030569460548FDF7A9FC002801D0FDF77A
:103CC00037FC09B030BD000000010050C0000020EA
:103CD0000080F03EF0B587B014216846FCF725FC63
:103CE0002D48C16C41F00401C164C16C01F00401B4
:103CF0000591C16C41F02001C164C16C01F020014B
:103D00000591C16C41F00101C164C16C01F0010178
:103D10000591C16C41F00201C164C16C01F0020166
:103D20000591C16C41F00801C164C06C1B4E00F0EC
:103D300008004FF47F440590012221463046FEF7EB
:103D40009CF9174F012204213846FEF796F9012508
:103D5000CDE9004500240294694630460394FEF7FD
:103D600063F8CDE9005469464FF090400294FEF7A5
:103D70005BF80720CDE9000469460A480294FEF783
:103D800053F804200090CDE9015469463846039465
:103D9000FEF74AF807B0F0BD0010024000080048E6
:103DA000000C0048000400480C4810B50A490160A6
:103DB00041F63F714160002140F2E732C0E9021252
:103DC000016141618161FEF754FF002803D0BDE825
:103DD0001040FDF7ADBB10BD00440140C401002000
:103DE00010B58CB0002405942148049406940794DF
:103DF00008940A9409940094019402944FF080412D
:103E0000039401604F21C0E90114611EC0E903144D
:103E10008461FEF72EFF08B1FDF78AFB4FF4805056
:103E2000049004A91248FFF703F808B1FDF780FBDE
:103E30000F48FFF741F908B1FDF77AFB089408A98C
:103E40000B480A94FEF7C6FE08B1FDF771FB01208E
:103E5000CDE9004002940022694605480394FFF72B
:103E600099F8002801D0FDF763FB0CB010BD0000ED
:103E70002C01002010B58CB0002405942248049435
:103E80000694079408940A94099400940194029467
:103E90001C49039401604F21C0E901144FF6FF71E2
:103EA000C0E903148461FEF7E4FE08B1FDF740FBAE
:103EB0004FF48050049004A91348FEF7B9FF08B1ED
:103EC000FDF736FB1048FFF7F7F808B1FDF730FBB8
:103ED000089408A90C480A94FEF77CFE08B1FDF787
:103EE00027FB0120CDE900400294002269460648E4
:103EF0000394FFF74FF8002801D0FDF719FB0CB031
:103F000010BD00000004004078010020184810B5E2
:103F1000164901604FF4E1314160002181600C22BB
:103F2000C160C0E904128161C161016241628162C4
:103F3000FFF709FB08B1FDF7FBFA00210C48FFF77A
:103F4000DCFA08B1FDF7F4FA00210948FFF7AFFAEF
:103F500008B1FDF7EDFA0648FFF78AFA002803D00A
:103F6000BDE81040FDF7E4BA10BD00000038014084
:103F700010020020FEE7FEE7704730B50121002067
:103F8000FFF7C2FD4FF47A70FDF7C4FA002101205B
:103F9000FFF7BAFD41F290711020FFF7B5FD4FF425
:103FA0001C516020FFF7B0FD01216120FFF7ACFD3F
:103FB00002214620FFF7A8FD48F210011320FFF769
:103FC000A3FD48F2FE011220FFF79EFD4FF4A06111
:103FD0000220FFF799FD41F230010320FFF794FD25
:103FE00040F2033421463020FFF78EFD2146312078
:103FF000FFF78AFD21463220FFF786FDE51E2946A0
:104000003320FFF781FD03213420FFF77DFD21469A
:104010003520FFF779FD14213620FFF775FD214685
:104020003720FFF771FD21463820FFF76DFD21464F
:104030003920FFF769FD29463A20FFF765FD032186
:104040003B20FFF761FD21463C20FFF75DFD4FF46B
:10405000A0513D20FFF758FD4FF400719220FFF76B
:1040600053FD21469320FFF74FFD40F60D019020B0
:10407000FFF74AFD41F218010320FFF745FDBDE8B7
:10408000304040F273110720FFF73EBD10B543F2F8
:104090000801E320FFF738FD1221E720FFF734FD88
:1040A00041F23121EF20FFF72FFD00210120FFF722
:1040B0002BFD4FF4E0610220FFF726FD41F23001B5
:1040C0000320FFF721FD00210420FFF71DFD40F232
:1040D00007210820FFF718FD00210920FFF714FD34
:1040E00000210A20FFF710FD00210C20FFF70CFD36
:1040F00000210D20FFF708FD00210F20FFF704FD30
:1041000000211020FFF700FD07211120FFF7FCFC24
:1041100000211220FFF7F8FC00211320FFF7F4FC28
:10412000C820FDF76FFE41F290611020FFF7ECFC14
:1041300040F227211120FFF7E7FC3220FDF762FE55
:104140001D211220FFF7E0FC3220FDF75BFE4FF44B
:1041500000611320FFF7D8FC14212920FFF7D4FCBD
:104160000B212B20FFF7D0FC3220FDF74BFE002166
:104170002020FFF7C9FC00212120FFF7C5FC072103
:104180003020FFF7C1FC40F207713120FFF7BCFC83
:1041900006213220FFF7B8FC40F204713520FFF70A
:1041A000B3FC41F604713620FFF7AEFC0421372042
:1041B000FFF7AAFC00213820FFF7A6FC40F20671A9
:1041C0003920FFF7A1FC40F201713C20FFF79CFC75
:1041D0000F213D20FFF798FC00215020FFF794FCB1
:1041E000EF215120FFF790FC00215220FFF78CFCBB
:1041F00040F23F115320FFF787FC4FF41C51602021
:10420000FFF782FC01216120FFF77EFC00216A207C
:10421000FFF77AFC00218020FFF776FC0021812047
:10422000FFF772FC00218220FFF76EFC0021832043
:10423000FFF76AFC00218420FFF766FC002185203F
:10424000FFF762FC10219020FFF75EFC0021922016
:10425000FFF75AFC03219320FFF756FC4FF48871B7
:104260009520FFF751FC00219720FFF74DFC00211E
:104270009820FFF749FC41F218010320FFF744FCA6
:10428000BDE8104040F273110720FFF73DBC00006D
:1042900008B1044801E003481030016841F04001D2
:1042A000016070471804004810B580210348FDF7ED
:1042B000DFFE012800D0002010BD000000040048EF
:1042C00000B585B014216846FCF72FF980200090D6
:1042D00000200190012002900220039069460248CC
:1042E000FDF7A2FD05B000BD0004004808B1044878
:1042F00001E003481030016841F08001016070471F
:104300001804004800B585B014216846FCF70DF983
:104310008020009011200190002002900220039044
:1043200069460248FDF780FD05B000BD0004004865
:104330007047FDF7ADBE00B593B038216846FCF775
:10434000F4F814210EA8FCF7F0F84FF40070FDF714
:1043500031FF0220C1010391402104910121CDE9E7
:10436000080100900A21CDE90A1007900C900D90E9
:104370006846FEF713FA08B172B6FEE70F200E90FA
:1043800003200F90002010901190129002210EA88F
:10439000FEF7BAF8002801D072B6FEE713B000BDF0
:1043A0000248016841F470010160704788ED00E047
:1043B0000148FEF749BF0000C40100200148FEF794
:1043C00043BF00002C0100200148FEF73DBF000064
:1043D000780100202DE9F0430268264B264D274E38
:1043E000274C4FF08049984207D0484505D0A84255
:1043F00003D0B04201D0A04203D122F070074A6836
:104400003A43204FDFF880C0DFF8808098420DD01B
:1044100048450BD0A84209D0B04207D0A04205D0F1
:10442000B84203D0604501D0404503D122F4407525
:10443000CA682A434D6922F080022A4302608A68D2
:10444000C2620A688262984207D0A04205D0B84290
:1044500003D0604501D0404501D1096901630121C4
:1044600041610169C90703D0016921F001010161BE
:10447000BDE8F083002C014000040040000800402B
:104480000034014000400140004401400048014028
:1044900010B501F01F030121046A99408C430462A6
:1044A000016A9A401143016210BD10B5846842EA66
:1044B000032224F47F440A432243826010BD00009B
:1044C0008268034B1A400A4342F00701816070473B
:1044D0008FFFCFFF10B5036A046A24F00104046261
:1044E000846924F0F00444EA021423F00A020A4327
:1044F0008461026210BD000070B5056A046A24F090
:10450000010404628469124EB0420ED0B0F1804FB3
:104510000BD0104EB04208D00F4EB04205D00F4E17
:10452000B04202D00E4EB04203D124F00304144333
:1045300001E044F001041A0724F0F00444EA126296
:1045400025F00A0301F00A0119438261016270BD7E
:10455000002C0140000400400008004000340140ED
:104560000040014010B5036A046A24F0100404629C
:10457000846923F0A00324F4704444EA023243EA3D
:1045800001118261016210BD30B5046A056A25F02F
:1045900010050562856925F4407545EA022222F47A
:1045A00070454FF6FF7202EA033224F0A0032A435B
:1045B000A02404EA011119438261016230BD0000A8
:1045C00030B5416EB9B1026891689268C1F3426139
:1045D0000B4B520F9C5CE50003F10804A25CB5FB99
:1045E000F2F2A0F86A205A5C615CD200B2FBF1F1F1
:1045F000A0F8681030BD0121A0F86A10F8E70000AB
:104600007253000890F82810090706D501684A6817
:10461000836B22F400421A434A6090F82810C907BD
:1046200006D001684A68C36A22F400321A434A601D
:1046300090F82810890706D501684A68036B22F4B0
:1046400080321A434A6090F82810490706D501685D
:104650004A68436B22F480221A434A6090F828107B
:10466000C90606D501688A68C36B22F480521A43D2
:104670008A6090F82810890606D501688A68036C5C
:1046800022F400521A438A6090F82810490611D586
:1046900001684A68436C22F480121A434A60416CF4
:1046A000B1F5801F06D101684A68836C22F4C0020C
:1046B0001A434A6090F82810090606D501684A682E
:1046C000C06C22F4002202434A6070472DE9F8438F
:1046D00000260446C0F89060FDF7D4FC80462068B0
:1046E00000684FF0200500076FF07E4713D5434662
:1046F000002229042046009700F0A2F958B1216851
:1047000051E8000F20F0800041E80002002AF6D1B5
:10471000C4F8885021E020680068400722D543464D
:1047200000224FF480012046009700F089F9C8B1BB
:10473000216851E8000F20F4907041E80002002A3F
:10474000F6D12068083050E8001F21F0010140E850
:104750000012002AF5D1C4F88C5084F8846003203C
:10476000BDE8F883C4F88850C4F88C5044F86C6FE6
:10477000666026760020F3E710B5026852E8001F55
:1047800021F4907142E80013002BF6D10E4B026821
:10479000083252E8001F194042E80014002CF6D1FC
:1047A000C16E012908D1016851E8002F22F01002E2
:1047B00041E80023002BF6D12021C0F88C10002105
:1047C000C166416710BD0000FEFFFFEF2DE9F0411B
:1047D0000446016880682269E36910436269002524
:1047E0001A431043DFF82CC20A688B4B1A4002436D
:1047F0000A6020684168E26821F440511143416039
:104800002168A069614501D0226A10438A68834B00
:104810001A4002438A602068C16A626A21F00F016F
:104820001143C1627E4923687E488B420DD1D0F886
:10483000880010F0030006D0012855D0022842D08D
:1048400003283FD152E001203DE077498B420BD154
:10485000D0F8880010F00C0035D0042833D0082898
:1048600040D00C282ED141E070498B420BD1D0F8BA
:10487000880010F0300026D0102835D0202831D004
:1048800030281FD132E06A498B420BD1D0F8880022
:1048900010F0C00017D0402826D0802822D0C02891
:1048A00010D123E063450DD1D0F8880010F44060AA
:1048B00009D0B0F5806F17D0B0F5006F12D0B0F509
:1048C000406F13D010205B495B4F00264FF400422D
:1048D00063453BD160B1022813D004280BD00828CF
:1048E00072D10DE00220EEE70420ECE70820EAE7B1
:1048F000FDF7F8FE01E0FDF719FF010001D17CE0B2
:104900001146606A37F810206768B1FBF2F007EBD8
:104910004703834270D8B0EB073F6DD800230846A9
:104920001946FBF7D5FC090241EA1061020278083A
:10493000101871413A460023FBF7CAFC3F4AA0F524
:104940004071914258D82168C86056E0E3694FF63B
:10495000EF7893422CD109284ED2DFE800F0050809
:10496000114D0D4D4D4D1000FDF7BCFE01E0FDF762
:10497000CBFE010004D140E0FDF7D8FEF9E7114677
:10498000606A37F81000B1FBF0F04100606801EB9D
:104990005001B1FBF0F0A0F1100141452CD84FF6C9
:1049A000F0710140C0F3420001432068C16024E07F
:1049B000092821D2DFE800F0050912200E2020206E
:1049C0001100FDF78FFE02E016E0FDF79DFE0100ED
:1049D00004D112E0FDF7AAFEF9E71146606A37F844
:1049E0001000B1FBF0F1606801EB5001B1FBF0F099
:1049F000A0F1100141450AD901250120A4F86A005F
:104A000024F8680F2846E6602661BDE8F08180B290
:104A100099E7000000800040F369FFCFFFF4FF1129
:104A200000380140001002400044004000480040AF
:104A3000004C00400024F4005A530008FFFC0F0013
:104A40002DE9F047994617460D4604464FF00008F9
:104A5000089E33E0701C31D0FDF714FBA0EB090079
:104A6000B04218D8BEB120680168490726D5802D0C
:104A700024D0402D22D0C169C94309070DD408258F
:104A800005622046FFF778FEC4F8905084F88480D1
:104A90000120BDE8F0870320FBE7C069C0430005A3
:104AA0000CD421684FF4006008622046FFF764FED2
:104AB0002020C4F8900084F88480ECE72068C06966
:104AC00035EA000004D00020B842C3D00020E0E75F
:104AD0000120F9E7FEE703B401984100009850EA8D
:104AE000C12018BF04204A0D18BF40F0010040F259
:104AF000FF72B2EB515F08BF40F00200012808BF0F
:104B0000052002B070470907090E002804DB00F1F8
:104B1000E02080F80014704700F00F0000F1E02062
:104B200080F8141D704730380A2801D201207047E0
:104B30000020704701B581B00020019900908842A3
:104B400001D2401CF9E70CBD30B58FB018A21E2170
:104B500002A8FBF749FC02A93020FEF789FE174D99
:104B6000E86800F07DFBCDE9000115A21E2102A836
:104B7000FBF73AFC02A94820FEF77AFE287820B11C
:104B8000012804D0022805D103E00FA402E010A4FC
:104B900000E011A412A10AA8FBF712FC0AA99020B8
:104BA000FEF766FE2146A820FEF762FE0FB030BD7C
:104BB000566F6C746167653A000000004400002085
:104BC000252E326620560000302D332E335600003D
:104BD000302D355620202000302D31305620000059
:104BE00052616E67653A000010B50023F0229621ED
:104BF0001846FEF789FE0123642232210020FEF7C9
:104C000083FE0024E0B2012305229621FEF77CFEFC
:104C10001E34F02CF6DD002404F1320081B20023B2
:104C200005221846FEF770FE1434642CF4DD10BD26
:104C300070B5244C207820B1012805D0022808D175
:104C400005E09FED210A04E0B1EE040A01E0B2EEB6
:104C5000040AD4ED030A80EE801A9FED1C0A21EEAF
:104C6000000ABCEEC00A10EE100AC0F1960085B230
:104C7000A07898B12079E188FEF7D8FEFEF716FFFC
:104C80004FF6FF763046FEF7E5FE2946A078FEF7A0
:104C9000CDFEFEF70BFF3046FEF7DCFEA078A080CD
:104CA000F021401CB0FBF1F201FB1200E580A07086
:104CB000002805D1FEF76EFDBDE87040FFF794BFF8
:104CC00070BD000044000020333353400000C84250
:104CD00070B50D460446FEF7D1FCA020FEF7A7FCF8
:104CE000FEF702FD2046FEF7A2FCFEF7FDFC28467B
:104CF000FEF79DFCFEF7F8FCFEF7DBFCBDE870401C
:104D00001420FDF77FB8000010B50C48FDF700F83F
:104D10000A48FCF78DFE00F092F99FED091B53EC59
:104D2000112B00F09FF99FED081B53EC112B00F0A5
:104D300099F900F053F900EE100A10BD540000205C
:104D40006666666666660A40000000000000303F46
:104D500010B5FFF7D9FF08480078002808D00128CF
:104D600007D0022804D1DFED050A00BF20EE200A9B
:104D700010BDDFED030AF9E7440000207CF041405C
:104D80007CF0C13F70B5FDF77DF92B4CE168411A0D
:104D9000142900D2E060294D01212846FDF768F969
:104DA000607002212846FDF763F9E070042128466F
:104DB000FDF75EF9607101214FF09040FDF758F961
:104DC000A0716078012540B9A078012805D11C4860
:104DD00005701C48057000F0DDF8E07840B92079D6
:104DE000012805D118490878401C00F0010008701E
:104DF0006079002610B1012806D013E02078012840
:104E000010D1257266720DE0207858B9607A4FF0A3
:104E100001010F2801D3042000E0032000F016F860
:104E2000667226726078A070E078207160792070D8
:104E3000A079E07170BD00002C0000200004004843
:104E400014000020160000201500002070B50E4E42
:104E50000D460446012204213046FDF70EF94FF4B9
:104E60008070641EA040094B81B20DB1002200E0A9
:104E700001221846FDF701F93046BDE870400022D6
:104E80000421FDF7FAB80000000C004800080048B3
:104E9000FDF706F9FFF74FFAFEF71CFFFEF784FF58
:104EA000FEF79EFFFEF7E6FFFEF78EFEFEF7D4FE4E
:104EB000FFF72CF81F48FDF77FFF002204211E4852
:104EC000FDF7DBF800211D48FEF728F900211C48FA
:104ED000FEF724F9FEF742FD0020FEF75BFC002000
:104EE000FEF79CFD4FF6FF70FEF7ACFDFFF77CFE72
:104EF0000D210120FFF7ECFE01210220FFF7E8FE63
:104F0000104C114E114D00BFFFF722FF00F020F8AA
:104F100084ED000A287806EB800080ED000AFFF798
:104F200013FEFFF785FEFFF72DFF3220FCF76AFF27
:104F3000EAE70000C4010020000C00482C0100201A
:104F40007801002050000020CC0200204600002004
:104F50000F480E4A417890ED021A02EB8102D2ED21
:104F6000000A82ED000A0A2271EE600AB2EE041A0B
:104F7000491CB1FBF2F370EE800A02FB1311C0ED85
:104F8000020A80EE810A417070470000A4020020EE
:104F90004400002005480178491CC9B20322B1FB36
:104FA000F2F302FB1311017070470000440000206F
:104FB00010B500290AD00878002807D005487844A1
:104FC000FBF740FE002801D0002010BD02487844C5
:104FD00010BD0000621600005A16000021F00042C9
:104FE000A2F16052B2F5801F01F0004328BFD2F158
:104FF0007F6C0BD95FEA001C43EAC20242EB50709F
:1050000018BF704728BF20F001007047B2F5801F1D
:10501000BCBF184670474FEA410C1CF5001F02D276
:10502000084600F093B970B500F0C6F8000000899A
:10503000FFF7F6BF4FF00040A0F580007047B0FAD0
:1050400080F310FA03F10AD0C3F11D0303F5806366
:105050004FEA41504FEA035202EBD12170474FF023
:1050600000007047DFF848C170B51CEA111E1EBF72
:105070001CEA13159EEA0C0F95EA0C0F00F06F80E6
:1050800081EA030423EA4C134EEAD47E21EA4C1150
:1050900041F4801143F48013AE44A1FB024CA0FB09
:1050A0000365AEF17F7E361955EB0C05A1FB034C71
:1050B0004CF10003A0FB021C16EB0C06654153F1FA
:1050C0000003094218BF46F0010613F4007F0BD11C
:1050D0004FEA03314FEA0530340341EA155140EA03
:1050E00016506FF003020AE04FEAC3214FEAC520D1
:1050F000F40241EA555140EA56506FF0020202EBC9
:105100002E4201EB025585EACE710AD05FEA440CCB
:1051100018BF24F0004450F1000041F1000120EAE2
:10512000D47040F2FE7C624500D270BDA84214BF2C
:105130004FF080444FF04044002E08BF0024BEF1E1
:10514000806FA8BFA1F1C041BDE8704080F28280AD
:105150004FF0000001F1C04101F0004170479EEAAC
:105160000C0F0CEA131518BF95EA0C0F06D04FF080
:10517000000081EA030E0EF0004170BD00F01CF843
:105180008900013E00F007B800F009B84FEA430C6F
:105190005FEA5C5C08D081EA030100F05BB84FEA8B
:1051A000410C5FEA5C5CF6D14FF0000001497047AA
:1051B0000000FF070000F87F0EF1020E2EF0030E34
:1051C0005EF8046B364205D4012A43EB030515F55E
:1051D000001F12D8012841EB010C1CF5001F0CD850
:1051E0000ED14FEAD17C15F5001F0CEB4C0C0CF1E5
:1051F000020C08BF4CEBD37C04E04FF0080C01E03C
:105200004FEAD37C0CEB4C0526FA05F606F00706B0
:10521000B6F1040C06D20EEB860CBDE870404CF0E3
:10522000010C6047DFE80CF0090B02024FF000416F
:105230004FF00000A1F5002170BD1946104601286D
:1052400051EB010418BFD4F5001484BF002001F015
:10525000004170BD0808A0F500114FEA3101704708
:1052600043004FEAD30C4FEA3C0C43401FBF4007BA
:105270000CF1605113F0FE4F70471CF0006F03D12A
:1052800000200CF0004170470CF0004343EA5070DE
:1052900010B540EACC0000F00EF800BF000000920C
:1052A0004FEA0001FFF7D6BF4FF000414FF000007A
:1052B000A1F5002170470EF1020E2EF0030E5EF8EC
:1052C000044B244204D44FEA4102B2F17F4F11D87B
:1052D0004FEA4003B3F17F4F0CD80ED14FEAD07C98
:1052E000B2F17F4F0CEB4C0C0CF1020C08BF4CEBF5
:1052F000D17C04E04FF0080C01E04FEAD17C0CEBCC
:105300004C0324FA03F404F00704B4F1040C06D2AD
:105310000EEB840CBDE810404CF0010C6047DFE858
:105320000CF0070802024FF00040A0F5800010BD0D
:105330000846420018BFD2F1807288BF00F00040DA
:1053400010BD4FF04070E1EE100A7047FF2141EAB6
:10535000D050C0057047FBF7EBB901000200040014
:10536000060008000A000C00100020004000800029
:105370000001010101030701000008040204080103
:105380000101000000000000000001020304060704
:1053900008090000000001020304000000000000F2
:1053A00000000000000000000000000000000000FD
:1053B00000000000000000000000000000000000ED
:1053C00000000000000000000000000080018001DB
:1053D00080018001800180018001800180018001C5
:1053E0008001800180010000000080018001000038
:1053F0000000000000000000000000000000CC00E1
:10540000CC00CC00CC00CC00CC00000000000000A0
:10541000000000000000000000000000000000008C
:10542000000000000000000000000000000000007C
:10543000000000000000600C600C600C30063006BC
:10544000FE1FFE1F300638071803FE1FFE1F18033D
:1054500018038C018C018C01000000008000E00327
:10546000F80F9C0E8C1C8C188C009800F801E0073B
:10547000800E801C8C188C189C18B80CF00FE00360
:10548000800080000000000000000000000000001C
:105490000E181B0C110C11061106110311039B01B0
:1054A0008E01C038C06C60446044304430441844BD
:1054B000186C0C380000000000000000E001F00350
:1054C0003807180618063003F001F000F8009C3188
:1054D0000E33061E061C061C063FFC73F02100005E
:1054E00000000000000000000000000000000C00B0
:1054F0000C000C000C000C000C0000000000000070
:10550000000000000000000000000000000000009B
:105510000000000000000000000000000002000386
:105520008001C000C000600060003000300030002A
:105530003000300030003000300060006000C000FB
:10554000C000800100030002000000002000600095
:10555000C000800180010003000300060006000671
:105560000006000600060006000600030003800196
:105570008001C0006000200000000000000000006A
:10558000000000000000C000C000D806F807E001DD
:105590003003380700000000000000000000000099
:1055A00000000000000000000000000000000000FB
:1055B0000000000000008001800180018001800166
:1055C000FC3FFC3F800180018001800180010000E0
:1055D00000000000000000000000000000000000CB
:1055E00000000000000000000000000000000000BB
:1055F00000000000000000000000000080018001A9
:105600000001000180000000000000000000000018
:10561000000000000000000000000000000000008A
:105620000000E007E00700000000000000000000AC
:10563000000000000000000000000000000000006A
:10564000000000000000000000000000000000005A
:10565000000000000000000000000000C000C000CA
:10566000000000000000000000000000000C000C22
:10567000000600060006000300030003800380010B
:1056800080018001C000C000C00060006000000018
:10569000000000000000000000000000E003F00730
:1056A000380E180C0C180C180C180C180C180C18B8
:1056B0000C180C180C18180C380EF007E00300003A
:1056C0000000000000000000000000000001800158
:1056D000C001F001980188018001800180018001F2
:1056E0008001800180018001800180018001000033
:1056F000000000000000000000000000E003F80FC0
:10570000180C0C180C1800180018000C00060003E8
:105710008001C000600030001800FC1FFC1F00006A
:10572000000000000000000000000000E001F80799
:10573000180E0C0C0C0C000C0006C003C007000C6B
:10574000001800180C180C18180CF807E0030000DB
:10575000000000000000000000000000000C000E2F
:10576000000F000F800DC00C600C600C300C180C8A
:105770000C0CFC3FFC3F000C000C000C000C00006B
:10578000000000000000000000000000F80FF80F0B
:10579000180018000C00EC03FC071C0E001C00187D
:1057A000001800180C181C0C180EF807E003000075
:1057B000000000000000000000000000C007F00F23
:1057C000381C181818000C00CC03EC0F3C0E1C1CE5
:1057D0000C180C180C18181C380EF007E003000009
:1057E000000000000000000000000000FC1FFC1F83
:1057F000000C00060006000380038001C001C00009
:10580000E0006000600070003000300030000000F8
:10581000000000000000000000000000E003F007AE
:10582000380E180C180C180C3806F007F007180C76
:105830000C180C180C180C18380CF80FE0030000AA
:10584000000000000000000000000000E003F0077E
:10585000380E1C0C0C180C180C181C1C381EF81BCD
:10586000E0190018000C000C1C0EF807F0010000F5
:105870000000000000000000000000000000000028
:105880000000000000008001800100000000000016
:105890000000000000000000000080018001000006
:1058A00000000000000000000000000000000000F8
:1058B00000000000000080018001000000000000E6
:1058C00000000000000000000000800180010001D5
:1058D0000001800000000000000000000000000047
:1058E000000000000000000000000010001C800FFD
:1058F000E003F8001800F800E003800F001C00101F
:105900000000000000000000000000000000000097
:1059100000000000000000000000F81F0000000070
:105920000000F81F00000000000000000000000060
:105930000000000000000000000000000000000067
:105940000000000000000000000008003800F00126
:10595000C007001F0018001FC007F0013800080032
:10596000000000000000000000000000E003F80F4D
:10597000180C0C180C180018000C0006000380010D
:10598000C000C000C00000000000C000C000000057
:105990000000000000000000000000000000E00720
:1059A00018180420C229224A114409440944094410
:1059B00009221113E20C024004201818E00700002D
:1059C00000000000000000000000000080038003D1
:1059D000C006C006C006600C600C301830183018C5
:1059E000F83FF83F1C700C600C6006C006C0000059
:1059F000000000000000000000000000FC03FC0F9D
:105A00000C0C0C180C180C180C0CFC07FC0F0C18C8
:105A10000C300C300C300C300C18FC1FFC07000054
:105A2000000000000000000000000000C007F01FA0
:105A300038381C300C7006600600060006000600B0
:105A40000600060006600C701C30F01FE007000026
:105A5000000000000000000000000000FE03FE0F38
:105A6000060E0618061806300630063006300630D8
:105A70000630063006180618060EFE0FFE0300005C
:105A8000000000000000000000000000FC3FFC3FA0
:105A90000C000C000C000C000C00FC1FFC1F0C0088
:105AA0000C000C000C000C000C00FC3FFC3F000044
:105AB000000000000000000000000000F83FF83F78
:105AC00018001800180018001800F81FF81F180018
:105AD000180018001800180018001800180000001E
